{
  "_format": "hh-sol-artifact-1",
  "contractName": "FactoryPair",
  "sourceName": "contracts/FactoryPair.sol",
  "abi": [
    {
      "inputs": [
        {
          "internalType": "address",
          "name": "_mainValueWallet",
          "type": "address"
        },
        {
          "internalType": "address",
          "name": "_settingExchange",
          "type": "address"
        },
        {
          "internalType": "address",
          "name": "_feeController",
          "type": "address"
        }
      ],
      "stateMutability": "nonpayable",
      "type": "constructor"
    },
    {
      "anonymous": false,
      "inputs": [
        {
          "indexed": true,
          "internalType": "address",
          "name": "token0",
          "type": "address"
        },
        {
          "indexed": true,
          "internalType": "address",
          "name": "token1",
          "type": "address"
        },
        {
          "indexed": false,
          "internalType": "address",
          "name": "pair",
          "type": "address"
        },
        {
          "indexed": false,
          "internalType": "uint256",
          "name": "",
          "type": "uint256"
        }
      ],
      "name": "PairCreated",
      "type": "event"
    },
    {
      "inputs": [
        {
          "internalType": "uint256",
          "name": "",
          "type": "uint256"
        }
      ],
      "name": "allPairs",
      "outputs": [
        {
          "internalType": "address",
          "name": "",
          "type": "address"
        }
      ],
      "stateMutability": "view",
      "type": "function"
    },
    {
      "inputs": [],
      "name": "allPairsLength",
      "outputs": [
        {
          "internalType": "uint256",
          "name": "",
          "type": "uint256"
        }
      ],
      "stateMutability": "view",
      "type": "function"
    },
    {
      "inputs": [
        {
          "internalType": "address",
          "name": "token0",
          "type": "address"
        },
        {
          "internalType": "address",
          "name": "token1",
          "type": "address"
        }
      ],
      "name": "createPair",
      "outputs": [
        {
          "internalType": "address",
          "name": "pair",
          "type": "address"
        }
      ],
      "stateMutability": "nonpayable",
      "type": "function"
    },
    {
      "inputs": [],
      "name": "feeController",
      "outputs": [
        {
          "internalType": "address",
          "name": "",
          "type": "address"
        }
      ],
      "stateMutability": "view",
      "type": "function"
    },
    {
      "inputs": [
        {
          "internalType": "address",
          "name": "",
          "type": "address"
        },
        {
          "internalType": "address",
          "name": "",
          "type": "address"
        }
      ],
      "name": "getPair",
      "outputs": [
        {
          "internalType": "address",
          "name": "",
          "type": "address"
        }
      ],
      "stateMutability": "view",
      "type": "function"
    },
    {
      "inputs": [],
      "name": "mainValueWallet",
      "outputs": [
        {
          "internalType": "address",
          "name": "",
          "type": "address"
        }
      ],
      "stateMutability": "view",
      "type": "function"
    },
    {
      "inputs": [],
      "name": "settingExchange",
      "outputs": [
        {
          "internalType": "address",
          "name": "",
          "type": "address"
        }
      ],
      "stateMutability": "view",
      "type": "function"
    }
  ],
  "bytecode": "0x60806040523480156200001157600080fd5b50604051620060cf380380620060cf83398181016040528101906200003791906200011a565b82600260006101000a81548173ffffffffffffffffffffffffffffffffffffffff021916908373ffffffffffffffffffffffffffffffffffffffff16021790555081600360006101000a81548173ffffffffffffffffffffffffffffffffffffffff021916908373ffffffffffffffffffffffffffffffffffffffff16021790555080600460006101000a81548173ffffffffffffffffffffffffffffffffffffffff021916908373ffffffffffffffffffffffffffffffffffffffff160217905550505050620001be565b6000815190506200011481620001a4565b92915050565b6000806000606084860312156200013057600080fd5b6000620001408682870162000103565b9350506020620001538682870162000103565b9250506040620001668682870162000103565b9150509250925092565b60006200017d8262000184565b9050919050565b600073ffffffffffffffffffffffffffffffffffffffff82169050919050565b620001af8162000170565b8114620001bb57600080fd5b50565b615f0180620001ce6000396000f3fe60806040523480156200001157600080fd5b5060043610620000885760003560e01c80638b8f23a811620000635780638b8f23a81462000107578063c9c653961462000129578063e6a43905146200015f578063ec0188c514620001955762000088565b80631e3dd18b146200008d578063574f2ba314620000c35780636999b37714620000e5575b600080fd5b620000ab6004803603810190620000a5919062000c16565b620001b7565b604051620000ba919062000e3b565b60405180910390f35b620000cd620001f7565b604051620000dc919062000fae565b60405180910390f35b620000ef62000204565b604051620000fe919062000e3b565b60405180910390f35b620001116200022a565b60405162000120919062000e3b565b60405180910390f35b62000147600480360381019062000141919062000ba9565b62000250565b60405162000156919062000e3b565b60405180910390f35b6200017d600480360381019062000177919062000ba9565b62000aee565b6040516200018c919062000e3b565b60405180910390f35b6200019f62000b30565b604051620001ae919062000e3b565b60405180910390f35b60018181548110620001c857600080fd5b906000526020600020016000915054906101000a900473ffffffffffffffffffffffffffffffffffffffff1681565b6000600180549050905090565b600460009054906101000a900473ffffffffffffffffffffffffffffffffffffffff1681565b600360009054906101000a900473ffffffffffffffffffffffffffffffffffffffff1681565b60008173ffffffffffffffffffffffffffffffffffffffff168373ffffffffffffffffffffffffffffffffffffffff161415620002c4576040517f08c379a0000000000000000000000000000000000000000000000000000000008152600401620002bb9062000f8c565b60405180910390fd5b600073ffffffffffffffffffffffffffffffffffffffff168373ffffffffffffffffffffffffffffffffffffffff16141562000337576040517f08c379a00000000000000000000000000000000000000000000000000000000081526004016200032e9062000f26565b60405180910390fd5b600073ffffffffffffffffffffffffffffffffffffffff166000808573ffffffffffffffffffffffffffffffffffffffff1673ffffffffffffffffffffffffffffffffffffffff16815260200190815260200160002060008473ffffffffffffffffffffffffffffffffffffffff1673ffffffffffffffffffffffffffffffffffffffff16815260200190815260200160002060009054906101000a900473ffffffffffffffffffffffffffffffffffffffff1673ffffffffffffffffffffffffffffffffffffffff161462000444576040517f08c379a00000000000000000000000000000000000000000000000000000000081526004016200043b9062000f6a565b60405180910390fd5b600360009054906101000a900473ffffffffffffffffffffffffffffffffffffffff1673ffffffffffffffffffffffffffffffffffffffff166390356984836040518263ffffffff1660e01b8152600401620004a1919062000e3b565b60206040518083038186803b158015620004ba57600080fd5b505afa158015620004cf573d6000803e3d6000fd5b505050506040513d601f19601f82011682018060405250810190620004f5919062000bea565b62000537576040517f08c379a00000000000000000000000000000000000000000000000000000000081526004016200052e9062000f04565b60405180910390fd5b600360009054906101000a900473ffffffffffffffffffffffffffffffffffffffff1673ffffffffffffffffffffffffffffffffffffffff1663d040f85a846040518263ffffffff1660e01b815260040162000594919062000e3b565b60206040518083038186803b158015620005ad57600080fd5b505afa158015620005c2573d6000803e3d6000fd5b505050506040513d601f19601f82011682018060405250810190620005e8919062000bea565b6200062a576040517f08c379a0000000000000000000000000000000000000000000000000000000008152600401620006219062000ee2565b60405180910390fd5b600083836040516020016200064192919062000e0b565b6040516020818303038152906040528051906020012090506000818585600260009054906101000a900473ffffffffffffffffffffffffffffffffffffffff16600360009054906101000a900473ffffffffffffffffffffffffffffffffffffffff16600460009054906101000a900473ffffffffffffffffffffffffffffffffffffffff16604051620006d59062000b56565b620006e595949392919062000e58565b8190604051809103906000f590508015801562000706573d6000803e3d6000fd5b509050600073ffffffffffffffffffffffffffffffffffffffff168173ffffffffffffffffffffffffffffffffffffffff1614156200077c576040517f08c379a0000000000000000000000000000000000000000000000000000000008152600401620007739062000f48565b60405180910390fd5b806000808773ffffffffffffffffffffffffffffffffffffffff1673ffffffffffffffffffffffffffffffffffffffff16815260200190815260200160002060008673ffffffffffffffffffffffffffffffffffffffff1673ffffffffffffffffffffffffffffffffffffffff16815260200190815260200160002060006101000a81548173ffffffffffffffffffffffffffffffffffffffff021916908373ffffffffffffffffffffffffffffffffffffffff160217905550806000808673ffffffffffffffffffffffffffffffffffffffff1673ffffffffffffffffffffffffffffffffffffffff16815260200190815260200160002060008773ffffffffffffffffffffffffffffffffffffffff1673ffffffffffffffffffffffffffffffffffffffff16815260200190815260200160002060006101000a81548173ffffffffffffffffffffffffffffffffffffffff021916908373ffffffffffffffffffffffffffffffffffffffff1602179055506001819080600181540180825580915050600190039060005260206000200160009091909190916101000a81548173ffffffffffffffffffffffffffffffffffffffff021916908373ffffffffffffffffffffffffffffffffffffffff160217905550600360009054906101000a900473ffffffffffffffffffffffffffffffffffffffff1673ffffffffffffffffffffffffffffffffffffffff1663762fac28866040518263ffffffff1660e01b8152600401620009b0919062000e3b565b600060405180830381600087803b158015620009cb57600080fd5b505af1158015620009e0573d6000803e3d6000fd5b50505050600360009054906101000a900473ffffffffffffffffffffffffffffffffffffffff1673ffffffffffffffffffffffffffffffffffffffff1663762fac28856040518263ffffffff1660e01b815260040162000a41919062000e3b565b600060405180830381600087803b15801562000a5c57600080fd5b505af115801562000a71573d6000803e3d6000fd5b505050508373ffffffffffffffffffffffffffffffffffffffff168573ffffffffffffffffffffffffffffffffffffffff167f0d3648bd0f6ba80134a33ba9275ac585d9d315f0ad8355cddefde31afa28d0e98360018054905060405162000adb92919062000eb5565b60405180910390a3809250505092915050565b60006020528160005260406000206020528060005260406000206000915091509054906101000a900473ffffffffffffffffffffffffffffffffffffffff1681565b600260009054906101000a900473ffffffffffffffffffffffffffffffffffffffff1681565b614e2280620010aa83390190565b60008135905062000b75816200105b565b92915050565b60008151905062000b8c8162001075565b92915050565b60008135905062000ba3816200108f565b92915050565b6000806040838503121562000bbd57600080fd5b600062000bcd8582860162000b64565b925050602062000be08582860162000b64565b9150509250929050565b60006020828403121562000bfd57600080fd5b600062000c0d8482850162000b7b565b91505092915050565b60006020828403121562000c2957600080fd5b600062000c398482850162000b92565b91505092915050565b62000c4d8162000fdc565b82525050565b62000c6862000c628262000fdc565b62001026565b82525050565b600062000c7d60168362000fcb565b91507f746869732061646472657373206e6f74206572633230000000000000000000006000830152602082019050919050565b600062000cbf601e8362000fcb565b91507f41646472657373546f6b656e31206e6f7420696e20616c6c6f776c69737400006000830152602082019050919050565b600062000d01600c8362000fcb565b91507f5a45524f5f4144445245535300000000000000000000000000000000000000006000830152602082019050919050565b600062000d43600b8362000fcb565b91507f4661696c5f4372656174650000000000000000000000000000000000000000006000830152602082019050919050565b600062000d85600b8362000fcb565b91507f504149525f4558495354530000000000000000000000000000000000000000006000830152602082019050919050565b600062000dc760138362000fcb565b91507f4944454e544943414c5f414444524553534553000000000000000000000000006000830152602082019050919050565b62000e05816200101c565b82525050565b600062000e19828562000c53565b60148201915062000e2b828462000c53565b6014820191508190509392505050565b600060208201905062000e52600083018462000c42565b92915050565b600060a08201905062000e6f600083018862000c42565b62000e7e602083018762000c42565b62000e8d604083018662000c42565b62000e9c606083018562000c42565b62000eab608083018462000c42565b9695505050505050565b600060408201905062000ecc600083018562000c42565b62000edb602083018462000dfa565b9392505050565b6000602082019050818103600083015262000efd8162000c6e565b9050919050565b6000602082019050818103600083015262000f1f8162000cb0565b9050919050565b6000602082019050818103600083015262000f418162000cf2565b9050919050565b6000602082019050818103600083015262000f638162000d34565b9050919050565b6000602082019050818103600083015262000f858162000d76565b9050919050565b6000602082019050818103600083015262000fa78162000db8565b9050919050565b600060208201905062000fc5600083018462000dfa565b92915050565b600082825260208201905092915050565b600062000fe98262000ffc565b9050919050565b60008115159050919050565b600073ffffffffffffffffffffffffffffffffffffffff82169050919050565b6000819050919050565b600062001033826200103a565b9050919050565b600062001047826200104e565b9050919050565b60008160601b9050919050565b620010668162000fdc565b81146200107257600080fd5b50565b620010808162000ff0565b81146200108c57600080fd5b50565b6200109a816200101c565b8114620010a657600080fd5b5056fe60c060405260006080908152507fffffffffffffffffffffffffffffffffffffffffffffffffffffffffffffffff60a0908152503480156200004057600080fd5b5060405162004e2238038062004e228339818101604052810190620000669190620002a4565b84600760006101000a81548173ffffffffffffffffffffffffffffffffffffffff021916908373ffffffffffffffffffffffffffffffffffffffff16021790555083600860006101000a81548173ffffffffffffffffffffffffffffffffffffffff021916908373ffffffffffffffffffffffffffffffffffffffff160217905550826000806101000a81548173ffffffffffffffffffffffffffffffffffffffff021916908373ffffffffffffffffffffffffffffffffffffffff16021790555081600160006101000a81548173ffffffffffffffffffffffffffffffffffffffff021916908373ffffffffffffffffffffffffffffffffffffffff16021790555080600260006101000a81548173ffffffffffffffffffffffffffffffffffffffff021916908373ffffffffffffffffffffffffffffffffffffffff1602179055506001600560008060ff16815260200190815260200160002081905550600160056000600160ff168152602001908152602001600020819055507fffffffffffffffffffffffffffffffffffffffffffffffffffffffffffffffff600360008060ff1681526020019081526020016000206000808152602001908152602001600020600701819055507fffffffffffffffffffffffffffffffffffffffffffffffffffffffffffffffff60036000600160ff168152602001908152602001600020600080815260200190815260200160002060070181905550505050505062000374565b6000815190506200029e816200035a565b92915050565b600080600080600060a08688031215620002bd57600080fd5b6000620002cd888289016200028d565b9550506020620002e0888289016200028d565b9450506040620002f3888289016200028d565b935050606062000306888289016200028d565b925050608062000319888289016200028d565b9150509295509295909350565b600062000333826200033a565b9050919050565b600073ffffffffffffffffffffffffffffffffffffffff82169050919050565b620003658162000326565b81146200037157600080fd5b50565b60805160a051614a26620003fc60003960008181612088015281816121f9015281816123f9015281816135aa0152613669015260008181610367015281816111e801528181611d3301528181611dbb01528181611e3b01528181611e6e01528181612061015281816121d2015281816123c20152818161354b01526136090152614a266000f3fe608060405234801561001057600080fd5b50600436106100ea5760003560e01c80638b8f23a81161008c578063c8ac1c3711610066578063c8ac1c3714610261578063d21220a714610291578063db35a2a4146102af578063ec0188c5146102e0576100ea565b80638b8f23a8146101f4578063a035b1fe14610212578063b4f9970d14610230576100ea565b8063671963ef116100c8578063671963ef146101595780636999b3771461018957806386182405146101a75780638844ffa6146101c3576100ea565b80630dfe1681146100ef5780630efd2c7e1461010d578063592cd0381461013d575b600080fd5b6100f76102fe565b604051610104919061405d565b60405180910390f35b61012760048036038101906101229190613966565b610324565b60405161013491906142a2565b60405180910390f35b61015760048036038101906101529190613ab7565b610691565b005b610173600480360381019061016e91906139a2565b610e40565b60405161018091906142a2565b60405180910390f35b610191611fbc565b60405161019e9190614131565b60405180910390f35b6101c160048036038101906101bc91906139f1565b611fe2565b005b6101dd60048036038101906101d891906138b1565b61203b565b6040516101eb929190614108565b60405180910390f35b6101fc612189565b6040516102099190614167565b60405180910390f35b61021a6121af565b60405161022791906142a2565b60405180910390f35b61024a60048036038101906102459190613a54565b6121b5565b604051610258929190614108565b60405180910390f35b61027b60048036038101906102769190613914565b6122cc565b60405161028891906142a2565b60405180910390f35b6102996122e4565b6040516102a6919061405d565b60405180910390f35b6102c960048036038101906102c491906139a2565b61230a565b6040516102d79291906140d8565b60405180910390f35b6102e8612635565b6040516102f5919061414c565b60405180910390f35b600760009054906101000a900473ffffffffffffffffffffffffffffffffffffffff1681565b600061032f83612659565b6000808460ff1614610342576000610345565b60015b9050600080600360008460ff1660ff16815260200190815260200160002060007f0000000000000000000000000000000000000000000000000000000000000000815260200190815260200160002060070154905060018360ff1614156105a4575b6000600360008560ff1660ff16815260200190815260200160002060008381526020019081526020016000206000015414158015610411575084600360008560ff1660ff168152602001908152602001600020600083815260200190815260200160002060050154105b1561059f57600360008460ff1660ff168152602001908152602001600020600082815260200190815260200160002060030160009054906101000a900473ffffffffffffffffffffffffffffffffffffffff1673ffffffffffffffffffffffffffffffffffffffff1663313ce5676040518163ffffffff1660e01b815260040160206040518083038186803b1580156104a957600080fd5b505afa1580156104bd573d6000803e3d6000fd5b505050506040513d601f19601f820116820180604052508101906104e1919061393d565b600a6104ed9190614649565b600360008560ff1660ff168152602001908152602001600020600083815260200190815260200160002060050154600360008660ff1660ff1681526020019081526020016000206000848152602001908152602001600020600401546105539190614767565b61055d91906145c5565b82610568919061456f565b9150600360008460ff1660ff16815260200190815260200160002060008281526020019081526020016000206007015490506103a7565b610685565b5b6000600360008560ff1660ff1681526020019081526020016000206000838152602001908152602001600020600001541415801561060f575084600360008560ff1660ff168152602001908152602001600020600083815260200190815260200160002060050154115b1561068457600360008460ff1660ff1681526020019081526020016000206000828152602001908152602001600020600401548261064d919061456f565b9150600360008460ff1660ff16815260200190815260200160002060008281526020019081526020016000206007015490506105a5565b5b81935050505092915050565b61069a86612659565b6106a3846126a3565b6106ac856126a3565b80156106df576106d884876000600460008b60ff1660ff1681526020019081526020016000205461203b565b9050809350505b6106e986846126e9565b610722838588600360008b60ff1660ff16815260200190815260200160002060008881526020019081526020016000206007015461275e565b60006040518060600160405280600073ffffffffffffffffffffffffffffffffffffffff168152602001600060ff168152602001600081525090506000808860ff161461079157600760009054906101000a900473ffffffffffffffffffffffffffffffffffffffff166107b5565b600860009054906101000a900473ffffffffffffffffffffffffffffffffffffffff165b905060008173ffffffffffffffffffffffffffffffffffffffff1663313ce5676040518163ffffffff1660e01b815260040160206040518083038186803b1580156107ff57600080fd5b505afa158015610813573d6000803e3d6000fd5b505050506040513d601f19601f82011682018060405250810190610837919061393d565b905081836000019073ffffffffffffffffffffffffffffffffffffffff16908173ffffffffffffffffffffffffffffffffffffffff168152505080836020019060ff16908160ff168152505050506108b48160200151600a6108999190614649565b86886108a59190614767565b6108af91906145c5565b6127af565b60008760ff161415610971578060200151600a6108d19190614649565b85876108dd9190614767565b6108e791906145c5565b8160400181815250506109028160000151826040015161289f565b61091187826040015187610e40565b9550848160200151600a6109259190614649565b876109309190614767565b61093a91906145c5565b95508060200151600a61094d9190614649565b85876109599190614767565b61096391906145c5565b8160400181815250506109a9565b8581604001818152505061098d8160000151826040015161289f565b61099c87826040015187610e40565b9550858160400181815250505b600086116109b75750610e38565b610a108160400151338360000151600760009054906101000a900473ffffffffffffffffffffffffffffffffffffffff16600860009054906101000a900473ffffffffffffffffffffffffffffffffffffffff16612990565b610a698160400151338360000151600760009054906101000a900473ffffffffffffffffffffffffffffffffffffffff16600860009054906101000a900473ffffffffffffffffffffffffffffffffffffffff16612a2a565b604051806101400160405280600560008a60ff1660ff1681526020019081526020016000205481526020013373ffffffffffffffffffffffffffffffffffffffff1681526020018860ff168152602001428152602001826000015173ffffffffffffffffffffffffffffffffffffffff16815260200187815260200186815260200160008152602001600360008a60ff1660ff1681526020019081526020016000206000878152602001908152602001600020600701548152602001600260009054906101000a900473ffffffffffffffffffffffffffffffffffffffff1673ffffffffffffffffffffffffffffffffffffffff1663cc08472184604001518933308e8b8b6040518863ffffffff1660e01b8152600401610b909796959493929190614363565b602060405180830381600087803b158015610baa57600080fd5b505af1158015610bbe573d6000803e3d6000fd5b505050506040513d601f19601f82011682018060405250810190610be29190613888565b815250600360008960ff1660ff1681526020019081526020016000206000600560008b60ff1660ff1681526020019081526020016000205481526020019081526020016000206000820151816000015560208201518160010160006101000a81548173ffffffffffffffffffffffffffffffffffffffff021916908373ffffffffffffffffffffffffffffffffffffffff16021790555060408201518160010160146101000a81548160ff021916908360ff1602179055506060820151816002015560808201518160030160006101000a81548173ffffffffffffffffffffffffffffffffffffffff021916908373ffffffffffffffffffffffffffffffffffffffff16021790555060a0820151816004015560c0820151816005015560e0820151816006015561010082015181600701556101208201518160080155905050600560008860ff1660ff16815260200190815260200160002054600360008960ff1660ff168152602001908152602001600020600086815260200190815260200160002060070181905550600460008860ff1660ff1681526020019081526020016000206000815480929190610d97906148e0565b9190505550600560008860ff1660ff1681526020019081526020016000206000815480929190610dc6906148e0565b91905055503373ffffffffffffffffffffffffffffffffffffffff163073ffffffffffffffffffffffffffffffffffffffff167f2d22ae8cec6ac5bd976433ac7c946b9d1ad9521d7bf16d125b4b607c3781052b89898942604051610e2e94939291906143d2565b60405180910390a3505b505050505050565b6000610e4b836126a3565b610e5484612659565b6000604051806101a00160405280600081526020016000815260200160008152602001600081526020016000815260200160008152602001600073ffffffffffffffffffffffffffffffffffffffff168152602001600073ffffffffffffffffffffffffffffffffffffffff168152602001600060ff168152602001600060ff16815260200160008152602001600160009054906101000a900473ffffffffffffffffffffffffffffffffffffffff1673ffffffffffffffffffffffffffffffffffffffff1663bef7a2f06040518163ffffffff1660e01b815260040160206040518083038186803b158015610f4957600080fd5b505afa158015610f5d573d6000803e3d6000fd5b505050506040513d601f19601f82011682018060405250810190610f819190613888565b8152602001600160009054906101000a900473ffffffffffffffffffffffffffffffffffffffff1673ffffffffffffffffffffffffffffffffffffffff1663e9c588c56040518163ffffffff1660e01b815260040160206040518083038186803b158015610fee57600080fd5b505afa158015611002573d6000803e3d6000fd5b505050506040513d601f19601f82011682018060405250810190611026919061385f565b73ffffffffffffffffffffffffffffffffffffffff1681525090506000806000808860ff161461109d57600760009054906101000a900473ffffffffffffffffffffffffffffffffffffffff16600860009054906101000a900473ffffffffffffffffffffffffffffffffffffffff1660006110e6565b600860009054906101000a900473ffffffffffffffffffffffffffffffffffffffff16600760009054906101000a900473ffffffffffffffffffffffffffffffffffffffff1660015b9250925092506110f6838861289f565b60018160ff1614156111105761110b876127af565b61111a565b61111987612ac4565b5b6000600460008360ff1660ff16815260200190815260200160002054116111475786945050505050611fb5565b60008373ffffffffffffffffffffffffffffffffffffffff1663313ce5676040518163ffffffff1660e01b815260040160206040518083038186803b15801561118f57600080fd5b505afa1580156111a3573d6000803e3d6000fd5b505050506040513d601f19601f820116820180604052508101906111c7919061393d565b90506000600360008460ff1660ff16815260200190815260200160002060007f00000000000000000000000000000000000000000000000000000000000000008152602001908152602001600020600701549050848660c0019073ffffffffffffffffffffffffffffffffffffffff16908173ffffffffffffffffffffffffffffffffffffffff1681525050838660e0019073ffffffffffffffffffffffffffffffffffffffff16908173ffffffffffffffffffffffffffffffffffffffff16815250508286610100019060ff16908160ff16815250508186610120019060ff16908160ff1681525050808661014001818152505050505050506000600160009054906101000a900473ffffffffffffffffffffffffffffffffffffffff1673ffffffffffffffffffffffffffffffffffffffff166326232a2e6040518163ffffffff1660e01b815260040160206040518083038186803b15801561132b57600080fd5b505afa15801561133f573d6000803e3d6000fd5b505050506040513d601f19601f820116820180604052508101906113639190613888565b90506000600160009054906101000a900473ffffffffffffffffffffffffffffffffffffffff1673ffffffffffffffffffffffffffffffffffffffff166342a1bbd26040518163ffffffff1660e01b815260040160206040518083038186803b1580156113cf57600080fd5b505afa1580156113e3573d6000803e3d6000fd5b505050506040513d601f19601f820116820180604052508101906114079190613888565b905060005b6004600085610100015160ff1660ff168152602001908152602001600020548110801561143c5750868460a00151105b156118f95760006003600086610100015160ff1660ff16815260200190815260200160002060008661014001518152602001908152602001600020905060008711156114be57600185610100015160ff1614156114aa5780600501548710156114a557506118f9565b6114bd565b80600501548711156114bc57506118f9565b5b5b60008560a00151896114d091906147c1565b90506000826006015483600401546114e891906147c1565b9050600080600189610100015160ff1614156115e15783896101200151600a6115119190614649565b8660050154856115219190614767565b61152b91906145c5565b111561153957839150611568565b886101200151600a61154b9190614649565b85600501548461155b9190614767565b61156591906145c5565b91505b8460050154896101200151600a61157f9190614649565b8361158a9190614767565b61159491906145c5565b8560060160008282546115a7919061456f565b925050819055508460050154896101200151600a6115c59190614649565b836115d09190614767565b6115da91906145c5565b905061163f565b838311156115f1578391506115f5565b8291505b81856006016000828254611609919061456f565b92505081905550886101200151600a6116229190614649565b8560050154836116329190614767565b61163c91906145c5565b90505b818960a0015161164f919061456f565b8960a0018181525050808960800181815161166a919061456f565b915081815250508189604001818151611683919061456f565b9150818152505061172b896101600151612710846116a191906145c5565b6116ab9190614767565b836116b691906147c1565b8660010160009054906101000a900473ffffffffffffffffffffffffffffffffffffffff168b60c00151600760009054906101000a900473ffffffffffffffffffffffffffffffffffffffff16600860009054906101000a900473ffffffffffffffffffffffffffffffffffffffff16612bb4565b8861016001516127108361173f91906145c5565b6117499190614767565b8960000181815161175a919061456f565b915081815250508861016001516127108261177591906145c5565b61177f9190614767565b8161178a91906147c1565b8960600181815161179b919061456f565b9150818152505061181b818660010160009054906101000a900473ffffffffffffffffffffffffffffffffffffffff168b60e00151600760009054906101000a900473ffffffffffffffffffffffffffffffffffffffff16600860009054906101000a900473ffffffffffffffffffffffffffffffffffffffff16612c4e565b8861016001516127108261182f91906145c5565b6118399190614767565b8960200181815161184a919061456f565b9150818152505084600501546006819055508460070154896101400181815250503373ffffffffffffffffffffffffffffffffffffffff163073ffffffffffffffffffffffffffffffffffffffff167f8d1217d18d0cd7a405666c006ca6783e8089da53024dac85b1a072c5f7cf23358b61010001518589600501548c426040516118d9959493929190614417565b60405180910390a3505050505080806118f1906148e0565b91505061140c565b5060008360a001511115611f9f576119608360400151338560c00151600760009054906101000a900473ffffffffffffffffffffffffffffffffffffffff16600860009054906101000a900473ffffffffffffffffffffffffffffffffffffffff16612990565b6119b98360600151338560e00151600760009054906101000a900473ffffffffffffffffffffffffffffffffffffffff16600860009054906101000a900473ffffffffffffffffffffffffffffffffffffffff16612bb4565b611a4b60648285600001516119ce9190614767565b6119d891906145c5565b600260009054906101000a900473ffffffffffffffffffffffffffffffffffffffff168560c00151600760009054906101000a900473ffffffffffffffffffffffffffffffffffffffff16600860009054906101000a900473ffffffffffffffffffffffffffffffffffffffff16612bb4565b611ac06064838560000151611a609190614767565b611a6a91906145c5565b8461018001518560c00151600760009054906101000a900473ffffffffffffffffffffffffffffffffffffffff16600860009054906101000a900473ffffffffffffffffffffffffffffffffffffffff16612bb4565b611b526064828560200151611ad59190614767565b611adf91906145c5565b600260009054906101000a900473ffffffffffffffffffffffffffffffffffffffff168560e00151600760009054906101000a900473ffffffffffffffffffffffffffffffffffffffff16600860009054906101000a900473ffffffffffffffffffffffffffffffffffffffff16612bb4565b611bc76064838560200151611b679190614767565b611b7191906145c5565b8461018001518560e00151600760009054906101000a900473ffffffffffffffffffffffffffffffffffffffff16600860009054906101000a900473ffffffffffffffffffffffffffffffffffffffff16612bb4565b600260009054906101000a900473ffffffffffffffffffffffffffffffffffffffff1673ffffffffffffffffffffffffffffffffffffffff1663a3318bce3060405180604001604052806064868960200151611c239190614767565b611c2d91906145c5565b81526020016064868960000151611c449190614767565b611c4e91906145c5565b81525060405180604001604052808c60ff1660ff16815260200188610100015160ff1660ff168152506040518463ffffffff1660e01b8152600401611c95939291906140a1565b600060405180830381600087803b158015611caf57600080fd5b505af1158015611cc3573d6000803e3d6000fd5b505050505b60006004600085610100015160ff1660ff16815260200190815260200160002054118015611e0b57506003600084610100015160ff1660ff16815260200190815260200160002060006003600086610100015160ff1660ff16815260200190815260200160002060007f00000000000000000000000000000000000000000000000000000000000000008152602001908152602001600020600701548152602001908152602001600020600401546103e86003600086610100015160ff1660ff16815260200190815260200160002060006003600088610100015160ff1660ff16815260200190815260200160002060007f0000000000000000000000000000000000000000000000000000000000000000815260200190815260200160002060070154815260200190815260200160002060060154611e08919061456f565b10155b15611e9957611e948361010001516003600086610100015160ff1660ff16815260200190815260200160002060007f00000000000000000000000000000000000000000000000000000000000000008152602001908152602001600020600701547f00000000000000000000000000000000000000000000000000000000000000006000612ce8565b611cc8565b600183610100015160ff161415611ee8578260800151836101200151600a611ec19190614649565b8460a00151611ed09190614767565b611eda91906145c5565b836080018181525050611f22565b8260a00151836101200151600a611eff9190614649565b8460800151611f0e9190614767565b611f1891906145c5565b8360800181815250505b3373ffffffffffffffffffffffffffffffffffffffff163073ffffffffffffffffffffffffffffffffffffffff167fff86d7c746b708bf5bbaf94117e782afb4597766e7eaea728f81944dbe54f33b8561010001518987608001518860a001518742604051611f969695949392919061446a565b60405180910390a35b8260a0015186611faf91906147c1565b93505050505b9392505050565b600260009054906101000a900473ffffffffffffffffffffffffffffffffffffffff1681565b611feb84612659565b611ff5848461347d565b80156120285761202184600085600460008960ff1660ff168152602001908152602001600020546121b5565b9050809250505b6120358484846001612ce8565b50505050565b60008061204785612659565b612050866126a3565b600080851461205f5784612081565b7f00000000000000000000000000000000000000000000000000000000000000005b905060005b7f0000000000000000000000000000000000000000000000000000000000000000600360008960ff1660ff168152602001908152602001600020600084815260200190815260200160002060000154141580156120e257508481105b1561217657612120828989600360008c60ff1660ff16815260200190815260200160002060008781526020019081526020016000206007015461353c565b1561213357600182935093505050612180565b600360008860ff1660ff1681526020019081526020016000206000838152602001908152602001600020600701549150808061216e906148e0565b915050612086565b6000829350935050505b94509492505050565b600160009054906101000a900473ffffffffffffffffffffffffffffffffffffffff1681565b60065481565b6000806121c186612659565b60008086146121d057856121f2565b7f00000000000000000000000000000000000000000000000000000000000000005b905060005b7f0000000000000000000000000000000000000000000000000000000000000000600360008a60ff1660ff1681526020019081526020016000206000848152602001908152602001600020600001541415801561225357508481105b156122b9576122638887846136cb565b15612276576001829350935050506122c3565b600360008960ff1660ff168152602001908152602001600020600083815260200190815260200160002060070154915080806122b1906148e0565b9150506121f7565b6000829350935050505b94509492505050565b60046020528060005260406000206000915090505481565b600860009054906101000a900473ffffffffffffffffffffffffffffffffffffffff1681565b6060600061231785612659565b60008367ffffffffffffffff811115612359577f4e487b7100000000000000000000000000000000000000000000000000000000600052604160045260246000fd5b60405190808252806020026020018201604052801561239257816020015b61237f61375f565b8152602001906001900390816123775790505b5090506000808087146123a557866123f4565b600360008960ff1660ff16815260200190815260200160002060007f00000000000000000000000000000000000000000000000000000000000000008152602001908152602001600020600701545b90505b7f0000000000000000000000000000000000000000000000000000000000000000600360008a60ff1660ff1681526020019081526020016000206000838152602001908152602001600020600001541415801561245357508582105b1561262457600360008960ff1660ff168152602001908152602001600020600082815260200190815260200160002060405180610140016040529081600082015481526020016001820160009054906101000a900473ffffffffffffffffffffffffffffffffffffffff1673ffffffffffffffffffffffffffffffffffffffff1673ffffffffffffffffffffffffffffffffffffffff1681526020016001820160149054906101000a900460ff1660ff1660ff168152602001600282015481526020016003820160009054906101000a900473ffffffffffffffffffffffffffffffffffffffff1673ffffffffffffffffffffffffffffffffffffffff1673ffffffffffffffffffffffffffffffffffffffff168152602001600482015481526020016005820154815260200160068201548152602001600782015481526020016008820154815250508383815181106125d6577f4e487b7100000000000000000000000000000000000000000000000000000000600052603260045260246000fd5b6020026020010181905250600360008960ff1660ff1681526020019081526020016000206000828152602001908152602001600020600701549050818061261c906148e0565b9250506123f7565b828194509450505050935093915050565b60008054906101000a900473ffffffffffffffffffffffffffffffffffffffff1681565b60018160ff1611156126a0576040517f08c379a000000000000000000000000000000000000000000000000000000000815260040161269790614282565b60405180910390fd5b50565b600081116126e6576040517f08c379a00000000000000000000000000000000000000000000000000000000081526004016126dd906141c2565b60405180910390fd5b50565b6000600360008460ff1660ff168152602001908152602001600020600083815260200190815260200160002060070154141561275a576040517f08c379a000000000000000000000000000000000000000000000000000000000815260040161275190614202565b60405180910390fd5b5050565b61276a8484848461353c565b6127a9576040517f08c379a00000000000000000000000000000000000000000000000000000000081526004016127a090614242565b60405180910390fd5b50505050565b600160009054906101000a900473ffffffffffffffffffffffffffffffffffffffff1673ffffffffffffffffffffffffffffffffffffffff16639a185df4306040518263ffffffff1660e01b815260040161280a919061405d565b60206040518083038186803b15801561282257600080fd5b505afa158015612836573d6000803e3d6000fd5b505050506040513d601f19601f8201168201806040525081019061285a9190613888565b81101561289c576040517f08c379a0000000000000000000000000000000000000000000000000000000008152600401612893906141a2565b60405180910390fd5b50565b8060008054906101000a900473ffffffffffffffffffffffffffffffffffffffff1673ffffffffffffffffffffffffffffffffffffffff1663d063db8d33856040518363ffffffff1660e01b81526004016128fb929190614078565b60206040518083038186803b15801561291357600080fd5b505afa158015612927573d6000803e3d6000fd5b505050506040513d601f19601f8201168201806040525081019061294b9190613888565b101561298c576040517f08c379a000000000000000000000000000000000000000000000000000000000815260040161298390614222565b60405180910390fd5b5050565b60008054906101000a900473ffffffffffffffffffffffffffffffffffffffff1673ffffffffffffffffffffffffffffffffffffffff16635683858986868686866040518663ffffffff1660e01b81526004016129f19594939291906142bd565b600060405180830381600087803b158015612a0b57600080fd5b505af1158015612a1f573d6000803e3d6000fd5b505050505050505050565b60008054906101000a900473ffffffffffffffffffffffffffffffffffffffff1673ffffffffffffffffffffffffffffffffffffffff1663d4223b3a86868686866040518663ffffffff1660e01b8152600401612a8b9594939291906142bd565b600060405180830381600087803b158015612aa557600080fd5b505af1158015612ab9573d6000803e3d6000fd5b505050505050505050565b600160009054906101000a900473ffffffffffffffffffffffffffffffffffffffff1673ffffffffffffffffffffffffffffffffffffffff1663049032f8306040518263ffffffff1660e01b8152600401612b1f919061405d565b60206040518083038186803b158015612b3757600080fd5b505afa158015612b4b573d6000803e3d6000fd5b505050506040513d601f19601f82011682018060405250810190612b6f9190613888565b811015612bb1576040517f08c379a0000000000000000000000000000000000000000000000000000000008152600401612ba8906141e2565b60405180910390fd5b50565b60008054906101000a900473ffffffffffffffffffffffffffffffffffffffff1673ffffffffffffffffffffffffffffffffffffffff1663c3715ab586868686866040518663ffffffff1660e01b8152600401612c159594939291906142bd565b600060405180830381600087803b158015612c2f57600080fd5b505af1158015612c43573d6000803e3d6000fd5b505050505050505050565b60008054906101000a900473ffffffffffffffffffffffffffffffffffffffff1673ffffffffffffffffffffffffffffffffffffffff16636a945d1d86868686866040518663ffffffff1660e01b8152600401612caf9594939291906142bd565b600060405180830381600087803b158015612cc957600080fd5b505af1158015612cdd573d6000803e3d6000fd5b505050505050505050565b612cf284846126e9565b612cfd848484613710565b6000600360008660ff1660ff168152602001908152602001600020600085815260200190815260200160002060405180610140016040529081600082015481526020016001820160009054906101000a900473ffffffffffffffffffffffffffffffffffffffff1673ffffffffffffffffffffffffffffffffffffffff1673ffffffffffffffffffffffffffffffffffffffff1681526020016001820160149054906101000a900460ff1660ff1660ff168152602001600282015481526020016003820160009054906101000a900473ffffffffffffffffffffffffffffffffffffffff1673ffffffffffffffffffffffffffffffffffffffff1673ffffffffffffffffffffffffffffffffffffffff1681526020016004820154815260200160058201548152602001600682015481526020016007820154815260200160088201548152505090506000816080015173ffffffffffffffffffffffffffffffffffffffff1663313ce5676040518163ffffffff1660e01b815260040160206040518083038186803b158015612e9257600080fd5b505afa158015612ea6573d6000803e3d6000fd5b505050506040513d601f19601f82011682018060405250810190612eca919061393d565b905082156131ab576000808760ff161415612f205781600a612eec9190614649565b8360c001518460e001518560a00151612f0591906147c1565b612f0f9190614767565b612f1991906145c5565b9050612f37565b8260e001518360a00151612f3491906147c1565b90505b612f8c81338560800151600760009054906101000a900473ffffffffffffffffffffffffffffffffffffffff16600860009054906101000a900473ffffffffffffffffffffffffffffffffffffffff16612bb4565b612fe181338560800151600760009054906101000a900473ffffffffffffffffffffffffffffffffffffffff16600860009054906101000a900473ffffffffffffffffffffffffffffffffffffffff16612c4e565b600260009054906101000a900473ffffffffffffffffffffffffffffffffffffffff1673ffffffffffffffffffffffffffffffffffffffff166358b13b0d8285602001513087604001518861012001516040518663ffffffff1660e01b8152600401613051959493929190614310565b600060405180830381600087803b15801561306b57600080fd5b505af115801561307f573d6000803e3d6000fd5b50505050826020015173ffffffffffffffffffffffffffffffffffffffff163073ffffffffffffffffffffffffffffffffffffffff167f944eb8f66948ba8d91e0755ba3bc78df495397e49bce98d442e5659b03f4b98885604001518660a001518760c001518860e00151600160009054906101000a900473ffffffffffffffffffffffffffffffffffffffff1673ffffffffffffffffffffffffffffffffffffffff166342a1bbd26040518163ffffffff1660e01b815260040160206040518083038186803b15801561315257600080fd5b505afa158015613166573d6000803e3d6000fd5b505050506040513d601f19601f8201168201806040525081019061318a9190613888565b4260405161319d9695949392919061446a565b60405180910390a3506133b4565b600260009054906101000a900473ffffffffffffffffffffffffffffffffffffffff1673ffffffffffffffffffffffffffffffffffffffff166358b13b0d60008860ff16146131fe578360a0015161322a565b82600a61320b9190614649565b8460c001518560a0015161321f9190614767565b61322991906145c5565b5b84602001513086604001518761012001516040518663ffffffff1660e01b815260040161325b959493929190614310565b600060405180830381600087803b15801561327557600080fd5b505af1158015613289573d6000803e3d6000fd5b50505050816020015173ffffffffffffffffffffffffffffffffffffffff163073ffffffffffffffffffffffffffffffffffffffff167f79f71e180ed8b33e438a1de3d03eef0a1d4814b0df9619fa43c117df69cffd1884604001518560a001518660c001518760e00151600160009054906101000a900473ffffffffffffffffffffffffffffffffffffffff1673ffffffffffffffffffffffffffffffffffffffff166342a1bbd26040518163ffffffff1660e01b815260040160206040518083038186803b15801561335c57600080fd5b505afa158015613370573d6000803e3d6000fd5b505050506040513d601f19601f820116820180604052508101906133949190613888565b89606001516040516133ab9695949392919061446a565b60405180910390a35b600360008760ff1660ff168152602001908152602001600020600086815260200190815260200160002060070154600360008860ff1660ff1681526020019081526020016000206000868152602001908152602001600020600701819055506000600360008860ff1660ff168152602001908152602001600020600087815260200190815260200160002060070181905550600460008760ff1660ff1681526020019081526020016000206000815480929190613470906148b6565b9190505550505050505050565b3373ffffffffffffffffffffffffffffffffffffffff16600360008460ff1660ff168152602001908152602001600020600083815260200190815260200160002060010160009054906101000a900473ffffffffffffffffffffffffffffffffffffffff1673ffffffffffffffffffffffffffffffffffffffff1614613538576040517f08c379a000000000000000000000000000000000000000000000000000000000815260040161352f90614262565b60405180910390fd5b5050565b6000808360ff161415613607577f00000000000000000000000000000000000000000000000000000000000000008514806135a1575083600360008060ff16815260200190815260200160002060008781526020019081526020016000206005015410155b801561360057507f00000000000000000000000000000000000000000000000000000000000000008214806135ff5750600360008060ff16815260200190815260200160002060008381526020019081526020016000206005015484115b5b90506136c3565b7f000000000000000000000000000000000000000000000000000000000000000085148061366057508360036000600160ff16815260200190815260200160002060008781526020019081526020016000206005015411155b80156136c057507f00000000000000000000000000000000000000000000000000000000000000008214806136bf575060036000600160ff16815260200190815260200160002060008381526020019081526020016000206005015484105b5b90505b949350505050565b60006136d784836126e9565b82600360008660ff1660ff1681526020019081526020016000206000848152602001908152602001600020600701541490509392505050565b61371b8383836136cb565b61375a576040517f08c379a000000000000000000000000000000000000000000000000000000000815260040161375190614182565b60405180910390fd5b505050565b60405180610140016040528060008152602001600073ffffffffffffffffffffffffffffffffffffffff168152602001600060ff16815260200160008152602001600073ffffffffffffffffffffffffffffffffffffffff16815260200160008152602001600081526020016000815260200160008152602001600081525090565b6000815190506137f081614994565b92915050565b600081359050613805816149ab565b92915050565b60008135905061381a816149c2565b92915050565b60008151905061382f816149c2565b92915050565b600081359050613844816149d9565b92915050565b600081519050613859816149d9565b92915050565b60006020828403121561387157600080fd5b600061387f848285016137e1565b91505092915050565b60006020828403121561389a57600080fd5b60006138a884828501613820565b91505092915050565b600080600080608085870312156138c757600080fd5b60006138d58782880161380b565b94505060206138e687828801613835565b93505060406138f78782880161380b565b92505060606139088782880161380b565b91505092959194509250565b60006020828403121561392657600080fd5b600061393484828501613835565b91505092915050565b60006020828403121561394f57600080fd5b600061395d8482850161384a565b91505092915050565b6000806040838503121561397957600080fd5b600061398785828601613835565b92505060206139988582860161380b565b9150509250929050565b6000806000606084860312156139b757600080fd5b60006139c586828701613835565b93505060206139d68682870161380b565b92505060406139e78682870161380b565b9150509250925092565b60008060008060808587031215613a0757600080fd5b6000613a1587828801613835565b9450506020613a268782880161380b565b9350506040613a378782880161380b565b9250506060613a48878288016137f6565b91505092959194509250565b60008060008060808587031215613a6a57600080fd5b6000613a7887828801613835565b9450506020613a898782880161380b565b9350506040613a9a8782880161380b565b9250506060613aab8782880161380b565b91505092959194509250565b60008060008060008060c08789031215613ad057600080fd5b6000613ade89828a01613835565b9650506020613aef89828a0161380b565b9550506040613b0089828a0161380b565b9450506060613b1189828a0161380b565b9350506080613b2289828a0161380b565b92505060a0613b3389828a016137f6565b9150509295509295509295565b6000613b4c8383613f55565b6101408301905092915050565b6000613b658383614021565b60208301905092915050565b6000613b7d838361403f565b60208301905092915050565b613b92816147f5565b82525050565b613ba1816147f5565b82525050565b6000613bb2826144ef565b613bbc8185614537565b9350613bc7836144cb565b8060005b83811015613bf8578151613bdf8882613b40565b9750613bea83614510565b925050600181019050613bcb565b5085935050505092915050565b613c0e816144fa565b613c188184614548565b9250613c23826144db565b8060005b83811015613c54578151613c3b8782613b59565b9650613c468361451d565b925050600181019050613c27565b505050505050565b613c6581614505565b613c6f8184614553565b9250613c7a826144e5565b8060005b83811015613cab578151613c928782613b71565b9650613c9d8361452a565b925050600181019050613c7e565b505050505050565b613cbc81614807565b82525050565b613ccb8161484a565b82525050565b613cda8161486e565b82525050565b613ce981614892565b82525050565b6000613cfc600d8361455e565b91507f6e6f742070726576496e646578000000000000000000000000000000000000006000830152602082019050919050565b6000613d3c60118361455e565b91507f6d696e20616d6f756e7420746f6b656e310000000000000000000000000000006000830152602082019050919050565b6000613d7c60048361455e565b91507f5a65726f000000000000000000000000000000000000000000000000000000006000830152602082019050919050565b6000613dbc60118361455e565b91507f6d696e20616d6f756e7420746f6b656e300000000000000000000000000000006000830152602082019050919050565b6000613dfc600f8361455e565b91507f696e646578206e6f7420657869737400000000000000000000000000000000006000830152602082019050919050565b6000613e3c60148361455e565b91507f696e73756666696369656e742062616c616e63650000000000000000000000006000830152602082019050919050565b6000613e7c60218361455e565b91507f706f736974696f6e20696e206c696e6b6564206c697374206e6f74206f72646560008301527f72000000000000000000000000000000000000000000000000000000000000006020830152604082019050919050565b6000613ee260148361455e565b91507f6e6f74206f776e65722074686973206f726465720000000000000000000000006000830152602082019050919050565b6000613f2260138361455e565b91507f696e76616c696420696e707574206973427579000000000000000000000000006000830152602082019050919050565b61014082016000820151613f6c6000850182614021565b506020820151613f7f6020850182613b89565b506040820151613f92604085018261403f565b506060820151613fa56060850182614021565b506080820151613fb86080850182613b89565b5060a0820151613fcb60a0850182614021565b5060c0820151613fde60c0850182614021565b5060e0820151613ff160e0850182614021565b50610100820151614006610100850182614021565b5061012082015161401b610120850182614021565b50505050565b61402a81614833565b82525050565b61403981614833565b82525050565b6140488161483d565b82525050565b6140578161483d565b82525050565b60006020820190506140726000830184613b98565b92915050565b600060408201905061408d6000830185613b98565b61409a6020830184613b98565b9392505050565b600060a0820190506140b66000830186613b98565b6140c36020830185613c05565b6140d06060830184613c5c565b949350505050565b600060408201905081810360008301526140f28185613ba7565b90506141016020830184614030565b9392505050565b600060408201905061411d6000830185613cb3565b61412a6020830184614030565b9392505050565b60006020820190506141466000830184613cc2565b92915050565b60006020820190506141616000830184613cd1565b92915050565b600060208201905061417c6000830184613ce0565b92915050565b6000602082019050818103600083015261419b81613cef565b9050919050565b600060208201905081810360008301526141bb81613d2f565b9050919050565b600060208201905081810360008301526141db81613d6f565b9050919050565b600060208201905081810360008301526141fb81613daf565b9050919050565b6000602082019050818103600083015261421b81613def565b9050919050565b6000602082019050818103600083015261423b81613e2f565b9050919050565b6000602082019050818103600083015261425b81613e6f565b9050919050565b6000602082019050818103600083015261427b81613ed5565b9050919050565b6000602082019050818103600083015261429b81613f15565b9050919050565b60006020820190506142b76000830184614030565b92915050565b600060a0820190506142d26000830188614030565b6142df6020830187613b98565b6142ec6040830186613b98565b6142f96060830185613b98565b6143066080830184613b98565b9695505050505050565b600060a0820190506143256000830188614030565b6143326020830187613b98565b61433f6040830186613b98565b61434c606083018561404e565b6143596080830184614030565b9695505050505050565b600060e082019050614378600083018a614030565b6143856020830189614030565b6143926040830188613b98565b61439f6060830187613b98565b6143ac608083018661404e565b6143b960a0830185614030565b6143c660c0830184613cb3565b98975050505050505050565b60006080820190506143e7600083018761404e565b6143f46020830186614030565b6144016040830185614030565b61440e6060830184614030565b95945050505050565b600060a08201905061442c600083018861404e565b6144396020830187614030565b6144466040830186614030565b6144536060830185614030565b6144606080830184614030565b9695505050505050565b600060c08201905061447f600083018961404e565b61448c6020830188614030565b6144996040830187614030565b6144a66060830186614030565b6144b36080830185614030565b6144c060a0830184614030565b979650505050505050565b6000819050602082019050919050565b6000819050919050565b6000819050919050565b600081519050919050565b600060029050919050565b600060029050919050565b6000602082019050919050565b6000602082019050919050565b6000602082019050919050565b600082825260208201905092915050565b600081905092915050565b600081905092915050565b600082825260208201905092915050565b600061457a82614833565b915061458583614833565b9250827fffffffffffffffffffffffffffffffffffffffffffffffffffffffffffffffff038211156145ba576145b9614929565b5b828201905092915050565b60006145d082614833565b91506145db83614833565b9250826145eb576145ea614958565b5b828204905092915050565b6000808291508390505b60018511156146405780860481111561461c5761461b614929565b5b600185161561462b5780820291505b808102905061463985614987565b9450614600565b94509492505050565b600061465482614833565b915061465f8361483d565b925061468c7fffffffffffffffffffffffffffffffffffffffffffffffffffffffffffffffff8484614694565b905092915050565b6000826146a45760019050614760565b816146b25760009050614760565b81600181146146c857600281146146d257614701565b6001915050614760565b60ff8411156146e4576146e3614929565b5b8360020a9150848211156146fb576146fa614929565b5b50614760565b5060208310610133831016604e8410600b84101617156147365782820a90508381111561473157614730614929565b5b614760565b61474384848460016145f6565b9250905081840481111561475a57614759614929565b5b81810290505b9392505050565b600061477282614833565b915061477d83614833565b9250817fffffffffffffffffffffffffffffffffffffffffffffffffffffffffffffffff04831182151516156147b6576147b5614929565b5b828202905092915050565b60006147cc82614833565b91506147d783614833565b9250828210156147ea576147e9614929565b5b828203905092915050565b600061480082614813565b9050919050565b60008115159050919050565b600073ffffffffffffffffffffffffffffffffffffffff82169050919050565b6000819050919050565b600060ff82169050919050565b60006148558261485c565b9050919050565b600061486782614813565b9050919050565b600061487982614880565b9050919050565b600061488b82614813565b9050919050565b600061489d826148a4565b9050919050565b60006148af82614813565b9050919050565b60006148c182614833565b915060008214156148d5576148d4614929565b5b600182039050919050565b60006148eb82614833565b91507fffffffffffffffffffffffffffffffffffffffffffffffffffffffffffffffff82141561491e5761491d614929565b5b600182019050919050565b7f4e487b7100000000000000000000000000000000000000000000000000000000600052601160045260246000fd5b7f4e487b7100000000000000000000000000000000000000000000000000000000600052601260045260246000fd5b60008160011c9050919050565b61499d816147f5565b81146149a857600080fd5b50565b6149b481614807565b81146149bf57600080fd5b50565b6149cb81614833565b81146149d657600080fd5b50565b6149e28161483d565b81146149ed57600080fd5b5056fea26469706673582212201eb2fe7434c143bfe04766c93cab1c8125faaa0ec4a2f5d20a66f31b0ee27fb764736f6c63430008000033a26469706673582212200713b9ab0602a2a74c053b36d4b7eca79e0a93b3b01ed0962a6e8709955f2fe464736f6c63430008000033",
  "linkReferences": {},
  "deployedLinkReferences": {}
}